:1000000000000320D9040000E9040000E904000016
:10001000E9040000E9040000E90400000000000019
:10002000000000000000000000000000E9040000E3
:10003000E904000000000000E9040000E9040000F9
:10004000E9040000E9040000E9040000E9040000FC
:10005000E9040000E9040000E9040000E9040000EC
:10006000E9040000E9040000E9040000E9040000DC
:10007000E9040000E9040000E9040000E9040000CC
:1003F000E9040000E9040000E9040000FFFFFFFF3A
:10040000FFFFFFFFFFFFFFFFFFFFFFFFFEFFFFFFFD
:1004100010B5054C237833B9044B13B10448AFF33E
:1004200000800123237010BD6400FF1F0000000046
:10043000AC06000008B5064B1BB106480649AFF3F1
:1004400000800648036813B1054B03B1984708BD07
:1004500000000000AC0600006800FF1F6000FF1FE6
:1004600000000000154B002B08BF134B9D46A3F561
:10047000803A00218B460F461348144A121A00F0A6
:1004800007F90F4B002B00D098470E4B002B00D0E4
:1004900098470020002104000D000D48002802D0DC
:1004A0000C48AFF3008000F0CDF82000290000F0E8
:1004B0001DF800F0B3F800BF0000080000000320A2
:1004C00000000000000000006400FF1F8400FF1F08
:1004D000000000000000000072B600F081F800F09B
:1004E00019F862B6FFF7BEFFFFF7FEBF80B400AF9A
:1004F000064B40225A61054B4FF0FF32C3F8802073
:10050000034B1B685A1C024B1A60F9E700B0044009
:100510008000FF1F80B489B000AF284BFB60284AE1
:10052000284B9A4216D00023FB610AE0254BFA695A
:1005300053F82210224BFA6943F82210FB69013369
:10054000FB61FB689A08FB699A42EFD81E4B1C4A74
:100550009A6002E01C4B1B4A9A601C4BBB611C4B0F
:100560007B611C4BBB60BA687B69D31AFB6107E0F7
:10057000BB695A1CBA617A69511C796112781A7088
:10058000FB695A1EFA61002BF2D1134B3B61134BEE
:100590007B607A683B69D31AFB6104E03B695A1CB3
:1005A0003A6100221A70FB695A1EFA61002BF5D1DC
:1005B0002437BD465DF8047B704700BF0000000093
:1005C000000000000000000000ED00E00000FF1F40
:1005D000D4060000380700006400FF1F8400FF1FDE
:1005E00080B400AF0B4B0B4AD2F8882042F4700263
:1005F000C3F88820084B4CF22052DA81064B4DF6A6
:100600002812DA81044B4FF4E9721A80BD465DF876
:10061000047B704700ED00E00020054008B5074B63
:10062000044613B10021AFF30080054B1868836ABC
:1006300003B19847204600F033F800BF00000000E7
:10064000A806000070B50E4B0E4DED1AAD1000243B
:100650001E46AC4204D056F8242090470134F8E7F7
:1006600000F024F8084D094BED1AAD1000241E4689
:10067000AC4204D056F8242090470134F8E770BD0E
:10068000CC060000CC060000D0060000CC0600001E
:1006900002440346934202D003F8011BFAE7704775
:1006A000FEE700BF430000000000FF1FF8B500BFD9
:1006B000F8BC08BC9E467047F8B500BFF8BC08BC43
:0406C0009E4670479B
:0806C400A0FDFF7F0100000012
:0406CC0035040000F1
:0406D0001104000011
:1006D4000000000000000000000000000000000016
:1006E4000000000000000000000000000000000006
:1006F400A40600000000000000000000000000004C
:1007040000000000000000000000000000000000E5
:1007140000000000000000000000000000000000D5
:1007240000000000000000000000000000000000C5
:0407340000000000C1
:04000003000004D91C
:00000001FF
